{
  "_format": "hh-sol-artifact-1",
  "contractName": "Galdappagos",
  "sourceName": "contracts/Galdappagos.sol",
  "abi": [
    {
      "inputs": [],
      "stateMutability": "nonpayable",
      "type": "constructor"
    },
    {
      "anonymous": false,
      "inputs": [
        {
          "indexed": true,
          "internalType": "address",
          "name": "owner",
          "type": "address"
        },
        {
          "indexed": true,
          "internalType": "address",
          "name": "approved",
          "type": "address"
        },
        {
          "indexed": true,
          "internalType": "uint256",
          "name": "tokenId",
          "type": "uint256"
        }
      ],
      "name": "Approval",
      "type": "event"
    },
    {
      "anonymous": false,
      "inputs": [
        {
          "indexed": true,
          "internalType": "address",
          "name": "owner",
          "type": "address"
        },
        {
          "indexed": true,
          "internalType": "address",
          "name": "operator",
          "type": "address"
        },
        {
          "indexed": false,
          "internalType": "bool",
          "name": "approved",
          "type": "bool"
        }
      ],
      "name": "ApprovalForAll",
      "type": "event"
    },
    {
      "anonymous": false,
      "inputs": [
        {
          "indexed": true,
          "internalType": "address",
          "name": "previousOwner",
          "type": "address"
        },
        {
          "indexed": true,
          "internalType": "address",
          "name": "newOwner",
          "type": "address"
        }
      ],
      "name": "OwnershipTransferred",
      "type": "event"
    },
    {
      "anonymous": false,
      "inputs": [
        {
          "indexed": true,
          "internalType": "address",
          "name": "from",
          "type": "address"
        },
        {
          "indexed": true,
          "internalType": "address",
          "name": "to",
          "type": "address"
        },
        {
          "indexed": true,
          "internalType": "uint256",
          "name": "tokenId",
          "type": "uint256"
        }
      ],
      "name": "Transfer",
      "type": "event"
    },
    {
      "inputs": [
        {
          "internalType": "address",
          "name": "to",
          "type": "address"
        },
        {
          "internalType": "uint256",
          "name": "tokenId",
          "type": "uint256"
        }
      ],
      "name": "approve",
      "outputs": [],
      "stateMutability": "nonpayable",
      "type": "function"
    },
    {
      "inputs": [
        {
          "internalType": "address",
          "name": "owner",
          "type": "address"
        }
      ],
      "name": "balanceOf",
      "outputs": [
        {
          "internalType": "uint256",
          "name": "",
          "type": "uint256"
        }
      ],
      "stateMutability": "view",
      "type": "function"
    },
    {
      "inputs": [
        {
          "internalType": "uint256",
          "name": "tokenId",
          "type": "uint256"
        }
      ],
      "name": "getApproved",
      "outputs": [
        {
          "internalType": "address",
          "name": "",
          "type": "address"
        }
      ],
      "stateMutability": "view",
      "type": "function"
    },
    {
      "inputs": [
        {
          "internalType": "address",
          "name": "owner",
          "type": "address"
        },
        {
          "internalType": "address",
          "name": "operator",
          "type": "address"
        }
      ],
      "name": "isApprovedForAll",
      "outputs": [
        {
          "internalType": "bool",
          "name": "",
          "type": "bool"
        }
      ],
      "stateMutability": "view",
      "type": "function"
    },
    {
      "inputs": [],
      "name": "name",
      "outputs": [
        {
          "internalType": "string",
          "name": "",
          "type": "string"
        }
      ],
      "stateMutability": "view",
      "type": "function"
    },
    {
      "inputs": [],
      "name": "owner",
      "outputs": [
        {
          "internalType": "address",
          "name": "",
          "type": "address"
        }
      ],
      "stateMutability": "view",
      "type": "function"
    },
    {
      "inputs": [
        {
          "internalType": "uint256",
          "name": "tokenId",
          "type": "uint256"
        }
      ],
      "name": "ownerOf",
      "outputs": [
        {
          "internalType": "address",
          "name": "",
          "type": "address"
        }
      ],
      "stateMutability": "view",
      "type": "function"
    },
    {
      "inputs": [],
      "name": "renounceOwnership",
      "outputs": [],
      "stateMutability": "nonpayable",
      "type": "function"
    },
    {
      "inputs": [
        {
          "internalType": "address",
          "name": "to",
          "type": "address"
        },
        {
          "internalType": "string",
          "name": "uri",
          "type": "string"
        }
      ],
      "name": "safeMint",
      "outputs": [],
      "stateMutability": "nonpayable",
      "type": "function"
    },
    {
      "inputs": [
        {
          "internalType": "address",
          "name": "from",
          "type": "address"
        },
        {
          "internalType": "address",
          "name": "to",
          "type": "address"
        },
        {
          "internalType": "uint256",
          "name": "tokenId",
          "type": "uint256"
        }
      ],
      "name": "safeTransferFrom",
      "outputs": [],
      "stateMutability": "nonpayable",
      "type": "function"
    },
    {
      "inputs": [
        {
          "internalType": "address",
          "name": "from",
          "type": "address"
        },
        {
          "internalType": "address",
          "name": "to",
          "type": "address"
        },
        {
          "internalType": "uint256",
          "name": "tokenId",
          "type": "uint256"
        },
        {
          "internalType": "bytes",
          "name": "data",
          "type": "bytes"
        }
      ],
      "name": "safeTransferFrom",
      "outputs": [],
      "stateMutability": "nonpayable",
      "type": "function"
    },
    {
      "inputs": [
        {
          "internalType": "address",
          "name": "operator",
          "type": "address"
        },
        {
          "internalType": "bool",
          "name": "approved",
          "type": "bool"
        }
      ],
      "name": "setApprovalForAll",
      "outputs": [],
      "stateMutability": "nonpayable",
      "type": "function"
    },
    {
      "inputs": [
        {
          "internalType": "bytes4",
          "name": "interfaceId",
          "type": "bytes4"
        }
      ],
      "name": "supportsInterface",
      "outputs": [
        {
          "internalType": "bool",
          "name": "",
          "type": "bool"
        }
      ],
      "stateMutability": "view",
      "type": "function"
    },
    {
      "inputs": [],
      "name": "symbol",
      "outputs": [
        {
          "internalType": "string",
          "name": "",
          "type": "string"
        }
      ],
      "stateMutability": "view",
      "type": "function"
    },
    {
      "inputs": [
        {
          "internalType": "uint256",
          "name": "index",
          "type": "uint256"
        }
      ],
      "name": "tokenByIndex",
      "outputs": [
        {
          "internalType": "uint256",
          "name": "",
          "type": "uint256"
        }
      ],
      "stateMutability": "view",
      "type": "function"
    },
    {
      "inputs": [
        {
          "internalType": "address",
          "name": "owner",
          "type": "address"
        },
        {
          "internalType": "uint256",
          "name": "index",
          "type": "uint256"
        }
      ],
      "name": "tokenOfOwnerByIndex",
      "outputs": [
        {
          "internalType": "uint256",
          "name": "",
          "type": "uint256"
        }
      ],
      "stateMutability": "view",
      "type": "function"
    },
    {
      "inputs": [
        {
          "internalType": "uint256",
          "name": "tokenId",
          "type": "uint256"
        }
      ],
      "name": "tokenURI",
      "outputs": [
        {
          "internalType": "string",
          "name": "",
          "type": "string"
        }
      ],
      "stateMutability": "view",
      "type": "function"
    },
    {
      "inputs": [],
      "name": "totalSupply",
      "outputs": [
        {
          "internalType": "uint256",
          "name": "",
          "type": "uint256"
        }
      ],
      "stateMutability": "view",
      "type": "function"
    },
    {
      "inputs": [
        {
          "internalType": "address",
          "name": "from",
          "type": "address"
        },
        {
          "internalType": "address",
          "name": "to",
          "type": "address"
        },
        {
          "internalType": "uint256",
          "name": "tokenId",
          "type": "uint256"
        }
      ],
      "name": "transferFrom",
      "outputs": [],
      "stateMutability": "nonpayable",
      "type": "function"
    },
    {
      "inputs": [
        {
          "internalType": "address",
          "name": "newOwner",
          "type": "address"
        }
      ],
      "name": "transferOwnership",
      "outputs": [],
      "stateMutability": "nonpayable",
      "type": "function"
    }
  ],
  "bytecode": "0x60806040523480156200001157600080fd5b506040518060400160405280600b81526020017f47616c6461707061676f730000000000000000000000000000000000000000008152506040518060400160405280600581526020017f474150504700000000000000000000000000000000000000000000000000000081525081600090816200008f919062000412565b508060019081620000a1919062000412565b505050620000c4620000b8620000ca60201b60201c565b620000d260201b60201c565b620004f9565b600033905090565b6000600b60009054906101000a900473ffffffffffffffffffffffffffffffffffffffff16905081600b60006101000a81548173ffffffffffffffffffffffffffffffffffffffff021916908373ffffffffffffffffffffffffffffffffffffffff1602179055508173ffffffffffffffffffffffffffffffffffffffff168173ffffffffffffffffffffffffffffffffffffffff167f8be0079c531659141344cd1fd0a4f28419497f9722a3daafe3b4186f6b6457e060405160405180910390a35050565b600081519050919050565b7f4e487b7100000000000000000000000000000000000000000000000000000000600052604160045260246000fd5b7f4e487b7100000000000000000000000000000000000000000000000000000000600052602260045260246000fd5b600060028204905060018216806200021a57607f821691505b60208210810362000230576200022f620001d2565b5b50919050565b60008190508160005260206000209050919050565b60006020601f8301049050919050565b600082821b905092915050565b6000600883026200029a7fffffffffffffffffffffffffffffffffffffffffffffffffffffffffffffffff826200025b565b620002a686836200025b565b95508019841693508086168417925050509392505050565b6000819050919050565b6000819050919050565b6000620002f3620002ed620002e784620002be565b620002c8565b620002be565b9050919050565b6000819050919050565b6200030f83620002d2565b620003276200031e82620002fa565b84845462000268565b825550505050565b600090565b6200033e6200032f565b6200034b81848462000304565b505050565b5b8181101562000373576200036760008262000334565b60018101905062000351565b5050565b601f821115620003c2576200038c8162000236565b62000397846200024b565b81016020851015620003a7578190505b620003bf620003b6856200024b565b83018262000350565b50505b505050565b600082821c905092915050565b6000620003e760001984600802620003c7565b1980831691505092915050565b6000620004028383620003d4565b9150826002028217905092915050565b6200041d8262000198565b67ffffffffffffffff811115620004395762000438620001a3565b5b62000445825462000201565b6200045282828562000377565b600060209050601f8311600181146200048a576000841562000475578287015190505b620004818582620003f4565b865550620004f1565b601f1984166200049a8662000236565b60005b82811015620004c4578489015182556001820191506020850194506020810190506200049d565b86831015620004e45784890151620004e0601f891682620003d4565b8355505b6001600288020188555050505b505050505050565b61376380620005096000396000f3fe608060405234801561001057600080fd5b506004361061012c5760003560e01c806370a08231116100ad578063b88d4fde11610071578063b88d4fde14610343578063c87b56dd1461035f578063d204c45e1461038f578063e985e9c5146103ab578063f2fde38b146103db5761012c565b806370a08231146102b1578063715018a6146102e15780638da5cb5b146102eb57806395d89b4114610309578063a22cb465146103275761012c565b806323b872dd116100f457806323b872dd146101e95780632f745c591461020557806342842e0e146102355780634f6ccce7146102515780636352211e146102815761012c565b806301ffc9a71461013157806306fdde0314610161578063081812fc1461017f578063095ea7b3146101af57806318160ddd146101cb575b600080fd5b61014b600480360381019061014691906122dd565b6103f7565b6040516101589190612325565b60405180910390f35b610169610409565b60405161017691906123d0565b60405180910390f35b61019960048036038101906101949190612428565b61049b565b6040516101a69190612496565b60405180910390f35b6101c960048036038101906101c491906124dd565b6104e1565b005b6101d36105f8565b6040516101e0919061252c565b60405180910390f35b61020360048036038101906101fe9190612547565b610605565b005b61021f600480360381019061021a91906124dd565b610665565b60405161022c919061252c565b60405180910390f35b61024f600480360381019061024a9190612547565b61070a565b005b61026b60048036038101906102669190612428565b61072a565b604051610278919061252c565b60405180910390f35b61029b60048036038101906102969190612428565b61079b565b6040516102a89190612496565b60405180910390f35b6102cb60048036038101906102c6919061259a565b610821565b6040516102d8919061252c565b60405180910390f35b6102e96108d8565b005b6102f36108ec565b6040516103009190612496565b60405180910390f35b610311610916565b60405161031e91906123d0565b60405180910390f35b610341600480360381019061033c91906125f3565b6109a8565b005b61035d60048036038101906103589190612768565b6109be565b005b61037960048036038101906103749190612428565b610a20565b60405161038691906123d0565b60405180910390f35b6103a960048036038101906103a4919061288c565b610a32565b005b6103c560048036038101906103c091906128e8565b610a6b565b6040516103d29190612325565b60405180910390f35b6103f560048036038101906103f0919061259a565b610aff565b005b600061040282610b82565b9050919050565b60606000805461041890612957565b80601f016020809104026020016040519081016040528092919081815260200182805461044490612957565b80156104915780601f1061046657610100808354040283529160200191610491565b820191906000526020600020905b81548152906001019060200180831161047457829003601f168201915b5050505050905090565b60006104a682610bfc565b6004600083815260200190815260200160002060009054906101000a900473ffffffffffffffffffffffffffffffffffffffff169050919050565b60006104ec8261079b565b90508073ffffffffffffffffffffffffffffffffffffffff168373ffffffffffffffffffffffffffffffffffffffff160361055c576040517f08c379a0000000000000000000000000000000000000000000000000000000008152600401610553906129fa565b60405180910390fd5b8073ffffffffffffffffffffffffffffffffffffffff1661057b610c47565b73ffffffffffffffffffffffffffffffffffffffff1614806105aa57506105a9816105a4610c47565b610a6b565b5b6105e9576040517f08c379a00000000000000000000000000000000000000000000000000000000081526004016105e090612a8c565b60405180910390fd5b6105f38383610c4f565b505050565b6000600880549050905090565b610616610610610c47565b82610d08565b610655576040517f08c379a000000000000000000000000000000000000000000000000000000000815260040161064c90612b1e565b60405180910390fd5b610660838383610d9d565b505050565b600061067083610821565b82106106b1576040517f08c379a00000000000000000000000000000000000000000000000000000000081526004016106a890612bb0565b60405180910390fd5b600660008473ffffffffffffffffffffffffffffffffffffffff1673ffffffffffffffffffffffffffffffffffffffff168152602001908152602001600020600083815260200190815260200160002054905092915050565b610725838383604051806020016040528060008152506109be565b505050565b60006107346105f8565b8210610775576040517f08c379a000000000000000000000000000000000000000000000000000000000815260040161076c90612c42565b60405180910390fd5b6008828154811061078957610788612c62565b5b90600052602060002001549050919050565b6000806107a783611096565b9050600073ffffffffffffffffffffffffffffffffffffffff168173ffffffffffffffffffffffffffffffffffffffff1603610818576040517f08c379a000000000000000000000000000000000000000000000000000000000815260040161080f90612cdd565b60405180910390fd5b80915050919050565b60008073ffffffffffffffffffffffffffffffffffffffff168273ffffffffffffffffffffffffffffffffffffffff1603610891576040517f08c379a000000000000000000000000000000000000000000000000000000000815260040161088890612d6f565b60405180910390fd5b600360008373ffffffffffffffffffffffffffffffffffffffff1673ffffffffffffffffffffffffffffffffffffffff168152602001908152602001600020549050919050565b6108e06110d3565b6108ea6000611151565b565b6000600b60009054906101000a900473ffffffffffffffffffffffffffffffffffffffff16905090565b60606001805461092590612957565b80601f016020809104026020016040519081016040528092919081815260200182805461095190612957565b801561099e5780601f106109735761010080835404028352916020019161099e565b820191906000526020600020905b81548152906001019060200180831161098157829003601f168201915b5050505050905090565b6109ba6109b3610c47565b8383611217565b5050565b6109cf6109c9610c47565b83610d08565b610a0e576040517f08c379a0000000000000000000000000000000000000000000000000000000008152600401610a0590612b1e565b60405180910390fd5b610a1a84848484611383565b50505050565b6060610a2b826113df565b9050919050565b610a3a6110d3565b6000610a46600c6114f1565b9050610a52600c6114ff565b610a5c8382611515565b610a668183611533565b505050565b6000600560008473ffffffffffffffffffffffffffffffffffffffff1673ffffffffffffffffffffffffffffffffffffffff16815260200190815260200160002060008373ffffffffffffffffffffffffffffffffffffffff1673ffffffffffffffffffffffffffffffffffffffff16815260200190815260200160002060009054906101000a900460ff16905092915050565b610b076110d3565b600073ffffffffffffffffffffffffffffffffffffffff168173ffffffffffffffffffffffffffffffffffffffff1603610b76576040517f08c379a0000000000000000000000000000000000000000000000000000000008152600401610b6d90612e01565b60405180910390fd5b610b7f81611151565b50565b60007f780e9d63000000000000000000000000000000000000000000000000000000007bffffffffffffffffffffffffffffffffffffffffffffffffffffffff1916827bffffffffffffffffffffffffffffffffffffffffffffffffffffffff19161480610bf55750610bf4826115a0565b5b9050919050565b610c0581611682565b610c44576040517f08c379a0000000000000000000000000000000000000000000000000000000008152600401610c3b90612cdd565b60405180910390fd5b50565b600033905090565b816004600083815260200190815260200160002060006101000a81548173ffffffffffffffffffffffffffffffffffffffff021916908373ffffffffffffffffffffffffffffffffffffffff160217905550808273ffffffffffffffffffffffffffffffffffffffff16610cc28361079b565b73ffffffffffffffffffffffffffffffffffffffff167f8c5be1e5ebec7d5bd14f71427d1e84f3dd0314c0f7b2291e5b200ac8c7c3b92560405160405180910390a45050565b600080610d148361079b565b90508073ffffffffffffffffffffffffffffffffffffffff168473ffffffffffffffffffffffffffffffffffffffff161480610d565750610d558185610a6b565b5b80610d9457508373ffffffffffffffffffffffffffffffffffffffff16610d7c8461049b565b73ffffffffffffffffffffffffffffffffffffffff16145b91505092915050565b8273ffffffffffffffffffffffffffffffffffffffff16610dbd8261079b565b73ffffffffffffffffffffffffffffffffffffffff1614610e13576040517f08c379a0000000000000000000000000000000000000000000000000000000008152600401610e0a90612e93565b60405180910390fd5b600073ffffffffffffffffffffffffffffffffffffffff168273ffffffffffffffffffffffffffffffffffffffff1603610e82576040517f08c379a0000000000000000000000000000000000000000000000000000000008152600401610e7990612f25565b60405180910390fd5b610e8f83838360016116c3565b8273ffffffffffffffffffffffffffffffffffffffff16610eaf8261079b565b73ffffffffffffffffffffffffffffffffffffffff1614610f05576040517f08c379a0000000000000000000000000000000000000000000000000000000008152600401610efc90612e93565b60405180910390fd5b6004600082815260200190815260200160002060006101000a81549073ffffffffffffffffffffffffffffffffffffffff02191690556001600360008573ffffffffffffffffffffffffffffffffffffffff1673ffffffffffffffffffffffffffffffffffffffff168152602001908152602001600020600082825403925050819055506001600360008473ffffffffffffffffffffffffffffffffffffffff1673ffffffffffffffffffffffffffffffffffffffff16815260200190815260200160002060008282540192505081905550816002600083815260200190815260200160002060006101000a81548173ffffffffffffffffffffffffffffffffffffffff021916908373ffffffffffffffffffffffffffffffffffffffff160217905550808273ffffffffffffffffffffffffffffffffffffffff168473ffffffffffffffffffffffffffffffffffffffff167fddf252ad1be2c89b69c2b068fc378daa952ba7f163c4a11628f55a4df523b3ef60405160405180910390a461109183838360016116d5565b505050565b60006002600083815260200190815260200160002060009054906101000a900473ffffffffffffffffffffffffffffffffffffffff169050919050565b6110db610c47565b73ffffffffffffffffffffffffffffffffffffffff166110f96108ec565b73ffffffffffffffffffffffffffffffffffffffff161461114f576040517f08c379a000000000000000000000000000000000000000000000000000000000815260040161114690612f91565b60405180910390fd5b565b6000600b60009054906101000a900473ffffffffffffffffffffffffffffffffffffffff16905081600b60006101000a81548173ffffffffffffffffffffffffffffffffffffffff021916908373ffffffffffffffffffffffffffffffffffffffff1602179055508173ffffffffffffffffffffffffffffffffffffffff168173ffffffffffffffffffffffffffffffffffffffff167f8be0079c531659141344cd1fd0a4f28419497f9722a3daafe3b4186f6b6457e060405160405180910390a35050565b8173ffffffffffffffffffffffffffffffffffffffff168373ffffffffffffffffffffffffffffffffffffffff1603611285576040517f08c379a000000000000000000000000000000000000000000000000000000000815260040161127c90612ffd565b60405180910390fd5b80600560008573ffffffffffffffffffffffffffffffffffffffff1673ffffffffffffffffffffffffffffffffffffffff16815260200190815260200160002060008473ffffffffffffffffffffffffffffffffffffffff1673ffffffffffffffffffffffffffffffffffffffff16815260200190815260200160002060006101000a81548160ff0219169083151502179055508173ffffffffffffffffffffffffffffffffffffffff168373ffffffffffffffffffffffffffffffffffffffff167f17307eab39ab6107e8899845ad3d59bd9653f200f220920489ca2b5937696c31836040516113769190612325565b60405180910390a3505050565b61138e848484610d9d565b61139a848484846116db565b6113d9576040517f08c379a00000000000000000000000000000000000000000000000000000000081526004016113d09061308f565b60405180910390fd5b50505050565b60606113ea82610bfc565b6000600a6000848152602001908152602001600020805461140a90612957565b80601f016020809104026020016040519081016040528092919081815260200182805461143690612957565b80156114835780601f1061145857610100808354040283529160200191611483565b820191906000526020600020905b81548152906001019060200180831161146657829003601f168201915b505050505090506000611494611862565b905060008151036114a95781925050506114ec565b6000825111156114de5780826040516020016114c69291906130eb565b604051602081830303815290604052925050506114ec565b6114e784611879565b925050505b919050565b600081600001549050919050565b6001816000016000828254019250508190555050565b61152f8282604051806020016040528060008152506118e1565b5050565b61153c82611682565b61157b576040517f08c379a000000000000000000000000000000000000000000000000000000000815260040161157290613181565b60405180910390fd5b80600a6000848152602001908152602001600020908161159b919061334d565b505050565b60007f80ac58cd000000000000000000000000000000000000000000000000000000007bffffffffffffffffffffffffffffffffffffffffffffffffffffffff1916827bffffffffffffffffffffffffffffffffffffffffffffffffffffffff1916148061166b57507f5b5e139f000000000000000000000000000000000000000000000000000000007bffffffffffffffffffffffffffffffffffffffffffffffffffffffff1916827bffffffffffffffffffffffffffffffffffffffffffffffffffffffff1916145b8061167b575061167a8261193c565b5b9050919050565b60008073ffffffffffffffffffffffffffffffffffffffff166116a483611096565b73ffffffffffffffffffffffffffffffffffffffff1614159050919050565b6116cf848484846119a6565b50505050565b50505050565b60006116fc8473ffffffffffffffffffffffffffffffffffffffff16611b04565b15611855578373ffffffffffffffffffffffffffffffffffffffff1663150b7a02611725610c47565b8786866040518563ffffffff1660e01b81526004016117479493929190613474565b6020604051808303816000875af192505050801561178357506040513d601f19601f8201168201806040525081019061178091906134d5565b60015b611805573d80600081146117b3576040519150601f19603f3d011682016040523d82523d6000602084013e6117b8565b606091505b5060008151036117fd576040517f08c379a00000000000000000000000000000000000000000000000000000000081526004016117f49061308f565b60405180910390fd5b805181602001fd5b63150b7a0260e01b7bffffffffffffffffffffffffffffffffffffffffffffffffffffffff1916817bffffffffffffffffffffffffffffffffffffffffffffffffffffffff19161491505061185a565b600190505b949350505050565b606060405180602001604052806000815250905090565b606061188482610bfc565b600061188e611862565b905060008151116118ae57604051806020016040528060008152506118d9565b806118b884611b27565b6040516020016118c99291906130eb565b6040516020818303038152906040525b915050919050565b6118eb8383611bf5565b6118f860008484846116db565b611937576040517f08c379a000000000000000000000000000000000000000000000000000000000815260040161192e9061308f565b60405180910390fd5b505050565b60007f01ffc9a7000000000000000000000000000000000000000000000000000000007bffffffffffffffffffffffffffffffffffffffffffffffffffffffff1916827bffffffffffffffffffffffffffffffffffffffffffffffffffffffff1916149050919050565b6119b284848484611e12565b60018111156119f6576040517f08c379a00000000000000000000000000000000000000000000000000000000081526004016119ed90613574565b60405180910390fd5b6000829050600073ffffffffffffffffffffffffffffffffffffffff168573ffffffffffffffffffffffffffffffffffffffff1603611a3d57611a3881611e18565b611a7c565b8373ffffffffffffffffffffffffffffffffffffffff168573ffffffffffffffffffffffffffffffffffffffff1614611a7b57611a7a8582611e61565b5b5b600073ffffffffffffffffffffffffffffffffffffffff168473ffffffffffffffffffffffffffffffffffffffff1603611abe57611ab981611fce565b611afd565b8473ffffffffffffffffffffffffffffffffffffffff168473ffffffffffffffffffffffffffffffffffffffff1614611afc57611afb848261209f565b5b5b5050505050565b6000808273ffffffffffffffffffffffffffffffffffffffff163b119050919050565b606060006001611b368461211e565b01905060008167ffffffffffffffff811115611b5557611b5461263d565b5b6040519080825280601f01601f191660200182016040528015611b875781602001600182028036833780820191505090505b509050600082602001820190505b600115611bea578080600190039150507f3031323334353637383961626364656600000000000000000000000000000000600a86061a8153600a8581611bde57611bdd613594565b5b04945060008503611b95575b819350505050919050565b600073ffffffffffffffffffffffffffffffffffffffff168273ffffffffffffffffffffffffffffffffffffffff1603611c64576040517f08c379a0000000000000000000000000000000000000000000000000000000008152600401611c5b9061360f565b60405180910390fd5b611c6d81611682565b15611cad576040517f08c379a0000000000000000000000000000000000000000000000000000000008152600401611ca49061367b565b60405180910390fd5b611cbb6000838360016116c3565b611cc481611682565b15611d04576040517f08c379a0000000000000000000000000000000000000000000000000000000008152600401611cfb9061367b565b60405180910390fd5b6001600360008473ffffffffffffffffffffffffffffffffffffffff1673ffffffffffffffffffffffffffffffffffffffff16815260200190815260200160002060008282540192505081905550816002600083815260200190815260200160002060006101000a81548173ffffffffffffffffffffffffffffffffffffffff021916908373ffffffffffffffffffffffffffffffffffffffff160217905550808273ffffffffffffffffffffffffffffffffffffffff16600073ffffffffffffffffffffffffffffffffffffffff167fddf252ad1be2c89b69c2b068fc378daa952ba7f163c4a11628f55a4df523b3ef60405160405180910390a4611e0e6000838360016116d5565b5050565b50505050565b6008805490506009600083815260200190815260200160002081905550600881908060018154018082558091505060019003906000526020600020016000909190919091505550565b60006001611e6e84610821565b611e7891906136ca565b9050600060076000848152602001908152602001600020549050818114611f5d576000600660008673ffffffffffffffffffffffffffffffffffffffff1673ffffffffffffffffffffffffffffffffffffffff168152602001908152602001600020600084815260200190815260200160002054905080600660008773ffffffffffffffffffffffffffffffffffffffff1673ffffffffffffffffffffffffffffffffffffffff168152602001908152602001600020600084815260200190815260200160002081905550816007600083815260200190815260200160002081905550505b6007600084815260200190815260200160002060009055600660008573ffffffffffffffffffffffffffffffffffffffff1673ffffffffffffffffffffffffffffffffffffffff16815260200190815260200160002060008381526020019081526020016000206000905550505050565b60006001600880549050611fe291906136ca565b905060006009600084815260200190815260200160002054905060006008838154811061201257612011612c62565b5b90600052602060002001549050806008838154811061203457612033612c62565b5b906000526020600020018190555081600960008381526020019081526020016000208190555060096000858152602001908152602001600020600090556008805480612083576120826136fe565b5b6001900381819060005260206000200160009055905550505050565b60006120aa83610821565b905081600660008573ffffffffffffffffffffffffffffffffffffffff1673ffffffffffffffffffffffffffffffffffffffff168152602001908152602001600020600083815260200190815260200160002081905550806007600084815260200190815260200160002081905550505050565b600080600090507a184f03e93ff9f4daa797ed6e38ed64bf6a1f010000000000000000831061217c577a184f03e93ff9f4daa797ed6e38ed64bf6a1f010000000000000000838161217257612171613594565b5b0492506040810190505b6d04ee2d6d415b85acef810000000083106121b9576d04ee2d6d415b85acef810000000083816121af576121ae613594565b5b0492506020810190505b662386f26fc1000083106121e857662386f26fc1000083816121de576121dd613594565b5b0492506010810190505b6305f5e1008310612211576305f5e100838161220757612206613594565b5b0492506008810190505b612710831061223657612710838161222c5761222b613594565b5b0492506004810190505b60648310612259576064838161224f5761224e613594565b5b0492506002810190505b600a8310612268576001810190505b80915050919050565b6000604051905090565b600080fd5b600080fd5b60007fffffffff0000000000000000000000000000000000000000000000000000000082169050919050565b6122ba81612285565b81146122c557600080fd5b50565b6000813590506122d7816122b1565b92915050565b6000602082840312156122f3576122f261227b565b5b6000612301848285016122c8565b91505092915050565b60008115159050919050565b61231f8161230a565b82525050565b600060208201905061233a6000830184612316565b92915050565b600081519050919050565b600082825260208201905092915050565b60005b8381101561237a57808201518184015260208101905061235f565b60008484015250505050565b6000601f19601f8301169050919050565b60006123a282612340565b6123ac818561234b565b93506123bc81856020860161235c565b6123c581612386565b840191505092915050565b600060208201905081810360008301526123ea8184612397565b905092915050565b6000819050919050565b612405816123f2565b811461241057600080fd5b50565b600081359050612422816123fc565b92915050565b60006020828403121561243e5761243d61227b565b5b600061244c84828501612413565b91505092915050565b600073ffffffffffffffffffffffffffffffffffffffff82169050919050565b600061248082612455565b9050919050565b61249081612475565b82525050565b60006020820190506124ab6000830184612487565b92915050565b6124ba81612475565b81146124c557600080fd5b50565b6000813590506124d7816124b1565b92915050565b600080604083850312156124f4576124f361227b565b5b6000612502858286016124c8565b925050602061251385828601612413565b9150509250929050565b612526816123f2565b82525050565b6000602082019050612541600083018461251d565b92915050565b6000806000606084860312156125605761255f61227b565b5b600061256e868287016124c8565b935050602061257f868287016124c8565b925050604061259086828701612413565b9150509250925092565b6000602082840312156125b0576125af61227b565b5b60006125be848285016124c8565b91505092915050565b6125d08161230a565b81146125db57600080fd5b50565b6000813590506125ed816125c7565b92915050565b6000806040838503121561260a5761260961227b565b5b6000612618858286016124c8565b9250506020612629858286016125de565b9150509250929050565b600080fd5b600080fd5b7f4e487b7100000000000000000000000000000000000000000000000000000000600052604160045260246000fd5b61267582612386565b810181811067ffffffffffffffff821117156126945761269361263d565b5b80604052505050565b60006126a7612271565b90506126b3828261266c565b919050565b600067ffffffffffffffff8211156126d3576126d261263d565b5b6126dc82612386565b9050602081019050919050565b82818337600083830152505050565b600061270b612706846126b8565b61269d565b90508281526020810184848401111561272757612726612638565b5b6127328482856126e9565b509392505050565b600082601f83011261274f5761274e612633565b5b813561275f8482602086016126f8565b91505092915050565b600080600080608085870312156127825761278161227b565b5b6000612790878288016124c8565b94505060206127a1878288016124c8565b93505060406127b287828801612413565b925050606085013567ffffffffffffffff8111156127d3576127d2612280565b5b6127df8782880161273a565b91505092959194509250565b600067ffffffffffffffff8211156128065761280561263d565b5b61280f82612386565b9050602081019050919050565b600061282f61282a846127eb565b61269d565b90508281526020810184848401111561284b5761284a612638565b5b6128568482856126e9565b509392505050565b600082601f83011261287357612872612633565b5b813561288384826020860161281c565b91505092915050565b600080604083850312156128a3576128a261227b565b5b60006128b1858286016124c8565b925050602083013567ffffffffffffffff8111156128d2576128d1612280565b5b6128de8582860161285e565b9150509250929050565b600080604083850312156128ff576128fe61227b565b5b600061290d858286016124c8565b925050602061291e858286016124c8565b9150509250929050565b7f4e487b7100000000000000000000000000000000000000000000000000000000600052602260045260246000fd5b6000600282049050600182168061296f57607f821691505b60208210810361298257612981612928565b5b50919050565b7f4552433732313a20617070726f76616c20746f2063757272656e74206f776e6560008201527f7200000000000000000000000000000000000000000000000000000000000000602082015250565b60006129e460218361234b565b91506129ef82612988565b604082019050919050565b60006020820190508181036000830152612a13816129d7565b9050919050565b7f4552433732313a20617070726f76652063616c6c6572206973206e6f7420746f60008201527f6b656e206f776e6572206f7220617070726f76656420666f7220616c6c000000602082015250565b6000612a76603d8361234b565b9150612a8182612a1a565b604082019050919050565b60006020820190508181036000830152612aa581612a69565b9050919050565b7f4552433732313a2063616c6c6572206973206e6f7420746f6b656e206f776e6560008201527f72206f7220617070726f76656400000000000000000000000000000000000000602082015250565b6000612b08602d8361234b565b9150612b1382612aac565b604082019050919050565b60006020820190508181036000830152612b3781612afb565b9050919050565b7f455243373231456e756d657261626c653a206f776e657220696e646578206f7560008201527f74206f6620626f756e6473000000000000000000000000000000000000000000602082015250565b6000612b9a602b8361234b565b9150612ba582612b3e565b604082019050919050565b60006020820190508181036000830152612bc981612b8d565b9050919050565b7f455243373231456e756d657261626c653a20676c6f62616c20696e646578206f60008201527f7574206f6620626f756e64730000000000000000000000000000000000000000602082015250565b6000612c2c602c8361234b565b9150612c3782612bd0565b604082019050919050565b60006020820190508181036000830152612c5b81612c1f565b9050919050565b7f4e487b7100000000000000000000000000000000000000000000000000000000600052603260045260246000fd5b7f4552433732313a20696e76616c696420746f6b656e2049440000000000000000600082015250565b6000612cc760188361234b565b9150612cd282612c91565b602082019050919050565b60006020820190508181036000830152612cf681612cba565b9050919050565b7f4552433732313a2061646472657373207a65726f206973206e6f74206120766160008201527f6c6964206f776e65720000000000000000000000000000000000000000000000602082015250565b6000612d5960298361234b565b9150612d6482612cfd565b604082019050919050565b60006020820190508181036000830152612d8881612d4c565b9050919050565b7f4f776e61626c653a206e6577206f776e657220697320746865207a65726f206160008201527f6464726573730000000000000000000000000000000000000000000000000000602082015250565b6000612deb60268361234b565b9150612df682612d8f565b604082019050919050565b60006020820190508181036000830152612e1a81612dde565b9050919050565b7f4552433732313a207472616e736665722066726f6d20696e636f72726563742060008201527f6f776e6572000000000000000000000000000000000000000000000000000000602082015250565b6000612e7d60258361234b565b9150612e8882612e21565b604082019050919050565b60006020820190508181036000830152612eac81612e70565b9050919050565b7f4552433732313a207472616e7366657220746f20746865207a65726f2061646460008201527f7265737300000000000000000000000000000000000000000000000000000000602082015250565b6000612f0f60248361234b565b9150612f1a82612eb3565b604082019050919050565b60006020820190508181036000830152612f3e81612f02565b9050919050565b7f4f776e61626c653a2063616c6c6572206973206e6f7420746865206f776e6572600082015250565b6000612f7b60208361234b565b9150612f8682612f45565b602082019050919050565b60006020820190508181036000830152612faa81612f6e565b9050919050565b7f4552433732313a20617070726f766520746f2063616c6c657200000000000000600082015250565b6000612fe760198361234b565b9150612ff282612fb1565b602082019050919050565b6000602082019050818103600083015261301681612fda565b9050919050565b7f4552433732313a207472616e7366657220746f206e6f6e20455243373231526560008201527f63656976657220696d706c656d656e7465720000000000000000000000000000602082015250565b600061307960328361234b565b91506130848261301d565b604082019050919050565b600060208201905081810360008301526130a88161306c565b9050919050565b600081905092915050565b60006130c582612340565b6130cf81856130af565b93506130df81856020860161235c565b80840191505092915050565b60006130f782856130ba565b915061310382846130ba565b91508190509392505050565b7f45524337323155524953746f726167653a2055524920736574206f66206e6f6e60008201527f6578697374656e7420746f6b656e000000000000000000000000000000000000602082015250565b600061316b602e8361234b565b91506131768261310f565b604082019050919050565b6000602082019050818103600083015261319a8161315e565b9050919050565b60008190508160005260206000209050919050565b60006020601f8301049050919050565b600082821b905092915050565b6000600883026132037fffffffffffffffffffffffffffffffffffffffffffffffffffffffffffffffff826131c6565b61320d86836131c6565b95508019841693508086168417925050509392505050565b6000819050919050565b600061324a613245613240846123f2565b613225565b6123f2565b9050919050565b6000819050919050565b6132648361322f565b61327861327082613251565b8484546131d3565b825550505050565b600090565b61328d613280565b61329881848461325b565b505050565b5b818110156132bc576132b1600082613285565b60018101905061329e565b5050565b601f821115613301576132d2816131a1565b6132db846131b6565b810160208510156132ea578190505b6132fe6132f6856131b6565b83018261329d565b50505b505050565b600082821c905092915050565b600061332460001984600802613306565b1980831691505092915050565b600061333d8383613313565b9150826002028217905092915050565b61335682612340565b67ffffffffffffffff81111561336f5761336e61263d565b5b6133798254612957565b6133848282856132c0565b600060209050601f8311600181146133b757600084156133a5578287015190505b6133af8582613331565b865550613417565b601f1984166133c5866131a1565b60005b828110156133ed578489015182556001820191506020850194506020810190506133c8565b8683101561340a5784890151613406601f891682613313565b8355505b6001600288020188555050505b505050505050565b600081519050919050565b600082825260208201905092915050565b60006134468261341f565b613450818561342a565b935061346081856020860161235c565b61346981612386565b840191505092915050565b60006080820190506134896000830187612487565b6134966020830186612487565b6134a3604083018561251d565b81810360608301526134b5818461343b565b905095945050505050565b6000815190506134cf816122b1565b92915050565b6000602082840312156134eb576134ea61227b565b5b60006134f9848285016134c0565b91505092915050565b7f455243373231456e756d657261626c653a20636f6e736563757469766520747260008201527f616e7366657273206e6f7420737570706f727465640000000000000000000000602082015250565b600061355e60358361234b565b915061356982613502565b604082019050919050565b6000602082019050818103600083015261358d81613551565b9050919050565b7f4e487b7100000000000000000000000000000000000000000000000000000000600052601260045260246000fd5b7f4552433732313a206d696e7420746f20746865207a65726f2061646472657373600082015250565b60006135f960208361234b565b9150613604826135c3565b602082019050919050565b60006020820190508181036000830152613628816135ec565b9050919050565b7f4552433732313a20746f6b656e20616c7265616479206d696e74656400000000600082015250565b6000613665601c8361234b565b91506136708261362f565b602082019050919050565b6000602082019050818103600083015261369481613658565b9050919050565b7f4e487b7100000000000000000000000000000000000000000000000000000000600052601160045260246000fd5b60006136d5826123f2565b91506136e0836123f2565b92508282039050818111156136f8576136f761369b565b5b92915050565b7f4e487b7100000000000000000000000000000000000000000000000000000000600052603160045260246000fdfea26469706673582212207d84b058d29942502304e27be1b18af14cc2d2b02861ab434a5b9c773da5f41c64736f6c63430008120033",
  "linkReferences": {},
  "deployedLinkReferences": {}
}